:020000040800F2
:100000001804002001010008C30F0008550F000864
:10001000C10F00083F0700082D1000080000000075
:10002000000000000000000000000000C70F0008F2
:100030004107000800000000C50F0008C90F0008B4
:100040001B0100081B0100081B0100081B01000820
:100050001B0100081B0100081B0100081B01000810
:100060001B0100081B0100081B0100081B01000800
:100070001B0100081B0100081B0100081B010008F0
:100080001B0100081B0100081B0100081B010008E0
:100090001B0100081B0100081B0100081B010008D0
:1000A0001B0100081B0100081B0100081B010008C0
:1000B0001B0100081B0100081B0100081B010008B0
:1000C0001B0100081B0100081B0100081B010008A0
:1000D0001B0100081B0100081B0100081B01000890
:1000E0001B0100081B0100081B010008DFF80CD0F1
:1000F00000F0CCFA00480047E5160008180400207C
:100100000648804706480047FEE7FEE7FEE7FEE7B1
:10011000FEE7FEE7FEE7FEE7FEE7FEE72B1000083E
:10012000ED000008202A04DB203A21FA02F0002129
:10013000704721FA02F3D040C2F1200291400843F7
:1001400019467047D2B201E000F8012B491EFBD2DC
:1001500070470022F6E710B513460A4604461946D2
:10016000FFF7F0FF204610BD2DE9FE4F804681EAE3
:100170000300C00F0C46009021F0004123F0004521
:10018000B8EB0200A94105D24046214690461C46E4
:100190000B46024623F00040104347D0270DC7F31B
:1001A0000A00C3F30A510290401A019040286BDA0A
:1001B000C3F3130040F4801B0098924620B1002343
:1001C000D2EB030A63EB0B0B01985946C0F14002D6
:1001D000504600F0A6F906460D4650465946019A8B
:1001E00000F0AEF910EB08006141002487EA1152DB
:1001F00084EAE7731A4340D0009A62B3019A012A55
:100200004FEA075215DC001B61EB02014FF0004280
:1002100002EA0752CDE90042001C41F58011324646
:100220002B4600F0E5F903B0BDE8F08F40462146CB
:10023000F9E7001B61EB0201001C41F58013001877
:100240005B412018A2F5001747EB030140EAD57087
:10025000B6196D4111E06D084FEA360645EAC075E2
:100260004FEA0752001B61EB0201001C41F58011AF
:1002700049084FEA30000019514132462B4603B07D
:10028000BDE8F04F00F0A5B900980122400000231E
:10029000D0EB020263EBE073009821464FEAE07472
:1002A000B8EB000061EB0401E9E783F000435BE792
:1002B00081F0004158E72DE9FE4F81EA030404F084
:1002C000004421F0004100944FF0000B23F0004364
:1002D00050EA01045ED052EA03045BD0C3F30A542F
:1002E000C1F30A552C44A4F2F3340194A0FB025448
:1002F000C1F3130141F48011C3F3130343F48013DA
:1003000001FB024400FB034E840A970A44EA81542D
:1003100047EA8357A4FB076802958D0A05FB07850A
:100320004FEA932C04FB0C542705029D4FEA065814
:1003300047EA1637B5EB08056EEB070C870E920EF1
:1003400047EA811742EA8312A7FB0201B6EB0B01D1
:1003500064EB00042B0D43EA0C335E1844EB1C5095
:10036000DA465146E7FB0201C5F313044FEA0B33AB
:1003700043EA14534FEA0432019C43EA0603A4F112
:100380000C040294009CCDE900B400F031F903B0F4
:10039000BDE8F08F00200146F9E72DE9F04D81EA34
:1003A000030404F0004B21F0004514464FF0000A0E
:1003B00023F0004150EA050220D054EA01021DD08A
:1003C000C5F30A570246C5F31303C1F31300C1F383
:1003D0000A5640F4801543F48013A7EB0608101B5F
:1003E000D64608F2FD3873EB050002D308F1010888
:1003F00001E092185B41B8F1000F03DA00200146DA
:10040000BDE8F08D00204FF48011064684460EE0D2
:10041000171B73EB050705D3121B63EB050306439C
:100420004CEA010C49084FEA300092185B4150EA4F
:100430000107EDD152EA030012D082EA040083EAF8
:100440000501084305D0101BAB4106D20122002351
:1004500006E000224FF0004302E06FF0010253106B
:100460001AEB06004CEB085110EB0A0041EB0B01B4
:10047000BDE8F04D00F0ADB80EB540F23341029149
:100480000021CDE900110A460B4600F0B1F803B097
:1004900000BDC1F30A5210B5C1F3130140F2FF339E
:1004A00041F480119A4201DA002010BD40F233433A
:1004B0009A42A2F2334203DC5242FFF733FE10BDF0
:1004C000904010BD00F0004230F000400AD0C10D55
:1004D00001F56071C0F3160042EA0151C2084007FD
:1004E0001143704700200146704701F0004330B4CB
:1004F00021F0004150EA010206D00A0DA2F5607217
:10050000C1F31301002A02DC30BC00207047440F05
:1005100044EAC104C100E01830BC00EBC25000F056
:1005200021B8202A04DB203A00FA02F100207047AB
:100530009140C2F1200320FA03F319439040704721
:10054000202A06DBCB17203A41FA02F043EAE07397
:1005500006E041FA02F3D040C2F120029140084384
:10056000194670470029A8BF7047401C490008BFC2
:1005700020F00100704710B4B0FA80FC00FA0CF0D3
:1005800050EA010404BF10BC704749B1CCF120040B
:1005900021FA04F411FA0CF118BF01212143084398
:1005A000A3EB0C01CB1D4FEA00614FEA102042BFC4
:1005B000002010BC704700EBC35010440029A4BFBA
:1005C00010BC7047401C490008BF20F0010010BC5F
:1005D000704710B5141E73F1000408DA401C41F195
:1005E000000192185B411A4301D120F0010010BDB7
:1005F0002DE9F04D92469B4611B1B1FA81F202E02D
:10060000B0FA80F220329046FFF78BFF04460F4687
:1006100040EA0A0041EA0B0153465A46084313D008
:10062000114653EA010019D0C8F140025046FFF7C5
:1006300079FD05460E46504659464246FFF771FF82
:10064000084305D0012004E020463946BDE8F08D7E
:100650000020054346EAE0762C4337430A986305B9
:10066000E40AA0EB08000022FD0A44EA47540A30DD
:1006700002D500200146E9E7010510196941DDE9CD
:10068000084500196941BDE8F04DA2E7064C074D49
:1006900006E0E06840F0010394E807009847103452
:1006A000AC42F6D3FFF726FD601900088019000858
:1006B00070B521F0004303430CD0C1F30A55002468
:1006C000D5EB040564EB0403D617AD1AB34102DB86
:1006D0000020014670BD201841EB025170BD0EB5DF
:1006E000C10F80EAE0700844CA07002140F233439A
:1006F0008DE80E000A460B46FFF77AFF03B000BDF7
:1007000070B5C1F30A5201F000450024C1F3130192
:1007100040F2FF3341F480119A4201DA002070BDAB
:1007200040F233439A42A2F2334203DC5242FFF7D3
:10073000F9FC00E090402C43F1D0404270BDFEE750
:100740007047000070B5044600F004F90546601CCF
:1007500002D004480078044400F0FCF8401BA0429A
:10076000FAD370BD000000202DE9F84FDFF8B891F2
:10077000002409F1040A0AF1040B23460F270BF1A8
:10078000040EC9E00125A5402A40AA427DD1674E4A
:10079000D1F804C0ACEB0608B44532D014DCBCF18F
:1007A000030F3AD009DCBCF1000F2AD0BCF1010FD5
:1007B0001CD0BCF1020F31D11DE0BCF1110F17D0DC
:1007C000BCF1120F2AD119E0B8F5881F19D006DC48
:1007D000B8F5803F15D0B8F5801F1FD111E0B8F5EE
:1007E000001F0ED0B8F5041F18D10AE0CB6815E041
:1007F000CB681B1D12E0CB6808330FE0CB680C33CD
:100800000CE08B682BB1012B4FF0080303D045613E
:1008100004E0042302E0056100E00023FF2A01D880
:10082000064601E000F104064FEA840501D9A5F16E
:100830002005D6F8008007FA05FC28EA0C0803FA20
:1008400005F548EA0508C6F800804D68ED0062D558
:10085000374DAE6946F00106AE61AD6924F003067E
:1008600005F001050095334D06EB050CDCF808504A
:10087000A607360F07FA06F825EA0805DFF8B8805C
:10088000404503D14FF0000817E044E0DFF8AC80AA
:10089000404502D14FF001080FE0DFF8A480404549
:1008A00002D14FF0020808E0DFF89880404502D1FD
:1008B0004FF0030801E04FF0040808FA06F848EA90
:1008C0000508CCF808804D68D9F80060ED034D4666
:1008D00001D5164300E096432E604D68DAF80060BB
:1008E000AD03554601D5164300E096432E604D6892
:1008F000DBF80060ED025D4601D5164300E096434B
:100900002E604D68DEF80060AD02754601D51643D5
:1009100000E096432E60641C0D682A46E5407FF493
:1009200031AFBDE8F88F0000000401400000111055
:10093000001002400000014000080140000C01408E
:1009400000100140001401400AB101617047090420
:10095000FBE70000014880687047000000000020AD
:1009600002488168027811448160704700000020CD
:10097000074810B5016841F010010160032000F044
:1009800067F8002000F006F800F024F8002010BD01
:100990000020024070B50D4D04464FF47A7128785E
:1009A000B1FBF0F00A490968B1FBF0F000F0BEFAC3
:1009B00048B9102C07D200222146501E00F028F81A
:1009C00000206C6070BD012070BD000000000020A0
:1009D0000C0000200C4808B5816941F001018161DB
:1009E000816901F001010091C16941F08051C1614B
:1009F000C06900F0805000900448416821F0E06137
:100A000041F08061416008BD0010024000000140DB
:100A1000F0B40E4B1B680C46C3F30223C3F1070569
:100A2000042D00D90425191D072901D2002300E057
:100A3000DB1E012606FA05F1491E214099409E4021
:100A4000761E16403143F0BC00F005BB0CED00E013
:100A5000064900F0070208684FF6FF03184040EA15
:100A60000220034A10430860704700000CED00E0CC
:100A70000000FA052DE9F0470F46050061D0434E0E
:100A8000306800F00700B84209D2306820F0070053
:100A900038433060306800F00700B84251D1286810
:100AA0003B4C810712D5400703D5606840F4E060F5
:100AB00060602878000703D5606840F4605060608B
:100AC0006068A96820F0F000084360602878C007DB
:100AD00028D06868012810D02168022810D0890722
:100AE00000292EDA616821F0030101436160FFF7FC
:100AF00031FF804641F288390DE021688903EFE734
:100B00008901EDE7FFF726FFA0EB0801494502D96F
:100B10000320BDE8F0876068696800F00C00B0EB66
:100B2000810FEFD1306800F00700B8420BD9306870
:100B300020F0070038433060306800F00700B8420A
:100B400001D00120E5E72878400705D56068E9680D
:100B500020F4E060084360602878000706D56068EC
:100B6000296920F4605040EAC100606000F018F884
:100B70006168084AC1F30311515CC8400649086026
:100B800006480068FFF706FF0020C2E70020024089
:100B900000100240301800080C0000200400002063
:100BA00012A185B00FC98DE80F0014A0144A006887
:100BB00004905168134801F00C03042B10D0082B4B
:100BC0000ED1C1F38343C9031DF803000AD5516850
:100BD00004AAC1F34041515C0A4A5043B0FBF1F012
:100BE00005B0704708494843FAE7000002030405CE
:100BF000060708090A0B0C0D0E0F10100102000069
:100C00000010024000127A0000093D002DE9F84F63
:100C1000040070D02078C04DC00749D06868C0F388
:100C20008100012807D06868C0F38100022809D13B
:100C30006868C00306D52868800339D56068002835
:100C4000E7D035E06068B0F5803F0BD010B1B0F56B
:100C5000A02F11D0286820F480302860286820F464
:100C6000802002E0286840F480302860606890B1FD
:100C7000FFF770FE06460AE0286840F480202860EE
:100C8000F0E700BFFFF766FE801B642873D8286872
:100C90008003F7D50CE0FFF75DFE064605E000BFD8
:100CA000FFF758FE801B6428F0D828688003F7D42B
:100CB00020789A4E80074FF001094FF0000839D58F
:100CC000686810F00C0F07D06868C0F38100022834
:100CD00009D16868C00306D42868800714D5206944
:100CE000012808D110E02069B0B1C6F80090FFF7E4
:100CF00031FE074605E00AE1FFF72CFEC01B022883
:100D0000C4D828688007F7D52868616920F0F80002
:100D100040EAC10028600DE0C6F80080FFF71AFE27
:100D2000074604E0FFF716FEC01B022823D82868F8
:100D30008007F7D4207800072CD57948A169D9B16C
:100D4000C0F80090FFF706FE074604E0FFF702FE3A
:100D5000C01B02280FD8686A8007F7D571484FF486
:100D6000FA510068B0FBF1F0009000BF0098411EFE
:100D70000091FAD20EE080E0C0F80080FFF7EAFDB3
:100D8000074604E0FFF7E6FDC01B022875D8686A35
:100D90008007F7D42078400760D5E8690027C000B5
:100DA00008D4E86940F08050E861E869012700F064
:100DB000805000905C480168C90513D401688346DF
:100DC00041F480710160FFF7C5FD824606E000BF77
:100DD000FFF7C0FDA0EB0A0064284ED8DBF8000046
:100DE000C005F5D5E06801280AD008B1052813D060
:100DF000286A20F001002862286A20F0040002E03E
:100E0000286A40F001002862E06841F2883B98B10E
:100E1000FFF7A0FD82460BE0286A40F0040028623C
:100E2000EEE700BFFFF796FDA0EB0A0159455AD83F
:100E3000286A8007F6D50CE0FFF78CFD824605E0B6
:100E4000FFF788FDA0EB0A0159454CD8286A8007B6
:100E5000F6D41FB1E86920F08050E861E06988B3FA
:100E60006968C1F38101022944D00228C6F8608074
:100E700004D0FFF76FFD044638E034E0FFF76AFD69
:100E8000074604E0FFF766FDC01B02282BD8286840
:100E90008001F7D4206AB0F5803F05D16868A16869
:100EA00020F4003008436860D4E908010843696809
:100EB00021F4741108436860C6F86090FFF74AFD9A
:100EC000044606E025E000BFFFF744FD001B0228B2
:100ED00009D828688001F7D51BE000BFFFF73AFD6D
:100EE000001B022802D90320BDE8F88F2868800182
:100EF000F4D40EE00128F7D06868226A00F480314B
:100F0000914204D1616A00F47010884201D001203E
:100F1000EAE70020E8E7000000100240000042423B
:100F2000800442420C0000200070004010B5401EBA
:100F3000B0F1807F01D3012010BD4FF0E02460614B
:100F40000F21601700F087F80020A06107202061C2
:100F5000002010BDFEE7000030B585B00024164823
:100F60000094019402940394816941F0200181610D
:100F7000816901F020010491816941F004018161DE
:100F800080690E4D00F004000490012202212846E1
:100F9000FFF7DAFC002244212846FFF7D5FC462063
:100FA00000900120CDE90104022003906946284603
:100FB000FFF7DAFB05B030BD001002400008014029
:100FC000FEE7FEE770477047FFF7CABC30B58FB049
:100FD00028216846FFF7BDF814210AA8FFF7B9F8E1
:100FE00001210804CDE90010002402940225049197
:100FF000CDE907504FF4E01009906846FFF706FE70
:1010000008B172B6FEE70F20CDE90A054FF4806003
:10101000CDE90C4002210AA80E94FFF72BFD002811
:1010200001D072B6FEE70FB030BD7047FEE7490051
:1010300050EAC12018BF04204A0D18BF40F001003B
:1010400040F2FF72B2EB515F08BF40F0020001288E
:1010500008BF052070470907090E002804DB00F1CE
:10106000E02080F80014704700F00F0000F1E0204D
:1010700080F8141D704700002DE9F74F144694B016
:101080000021C4E902111599079121F00045C949D1
:101090008D4206DC1599C4E9000117B00020BDE8B7
:1010A000F08FC549DFF814A3A9423CDD0799C44E6F
:1010B0000029C44FC44A1599534619DDFFF7F5F8C6
:1010C000554506D0C14AC24BFFF7EFF8C4E900010D
:1010D0000AE04FF0D352BE4BFFF7E7F832463B46EB
:1010E000FFF7E3F8C4E9000117B00120BDE8F08F75
:1010F000FFF73AF8554506D0B44AB54BFFF734F838
:10110000C4E900010AE04FF0D352B14BFFF72CF8CD
:1011100032463B46FFF728F8C4E9000117B04FF00C
:10112000FF30BDE8F08FAB49A942159978DB21F07B
:10113000004183468846A84AA84BFFF7BCF8002226
:10114000A74BFFF711F8FFF7DBFA0990FFF7C7FA93
:1011500006460F469C4A5346FFF7ADF843465A46AB
:10116000FFF7A6F880468A46984A994B304639469A
:10117000FFF7A1F82A0D01250B9242465346FFF7CF
:1011800097F8032DC4E9000139D00B98C1F30A5137
:10119000401A05EB45111139814230DA9148C346B6
:1011A000784400EB0510CDF80CA00C90D0E900239A
:1011B00030463946FFF77FF802460B460491069009
:1011C00058460399FFF771F880468A4602460B4657
:1011D00058460399FFF769F8049B069AFFF765F8EC
:1011E00083460C9803913946D0E902233046FFF735
:1011F00062F85A46039BFFF758F86D1CBDE7079845
:101200000028A2BF099817B0BDE8F08F616881F08F
:1012100000416160099817B04042BDE8F08FFFE7D8
:1012200084461598C1F31301C0F30A50A0F2F530BB
:101230004FEA601800F01F06C6F12000139000204E
:101240000690079041F4801E05206D4676B1664AEF
:1012500008EB00017A4452F8213002EB8101B340DF
:101260004A68139922FA01F1194305E05F4908EB36
:101270000002794451F82210A1FB0E27A1FB0C13A8
:101280001A449A4234BF0123002303EB070A05EBFB
:101290008003D3E901B70F448F4234BF01210021FD
:1012A00093448B4411B1934502D903E0934501D295
:1012B000012100E00021C3E901B7514445F82010A5
:1012C000011EA0F10100C1DC0298059F00F1005051
:1012D000800F12900298DDE903568000FFF7FFF9B6
:1012E000834628460D91FFF7C7F86FF01D02FFF700
:1012F000DFF9CDE90E013046FFF7BEF86FF03D0291
:10130000FFF7D6F980468A463846FFF7B5F86FF002
:101310005D02FFF7CDF90746424653461191FEF7AD
:1013200023FFDDE90E23FEF71FFF5A460D9BFEF754
:101330001BFF00250E465A4628460D9BFEF7B5FFBB
:10134000DDE90E23FEF7B1FF42465346FEF7ADFF3F
:101350003A46119BFEF7ACFFDFF898A0244A5346AB
:10136000FEF7A9FF07468846234A244B3146284604
:10137000FEF7A1FF3A464346FEF7F6FE07468846CB
:101380004FF0A842534631462846FEF794FF3A46AE
:101390004346FEF7E9FE159A12F0004F04D0129A68
:1013A00081F0004152421292C4E90001129817B034
:1013B000BDE8F08FFB21E93F7CD90240FB21F93FDA
:1013C0007370032E8A19A33B000040543163621AE4
:1013D00061B4D03DFB21394183C8C96D305FE43F22
:1013E0000000E03FCC060000480600002A0600008E
:1013F000182D4454FB21F93D3326A611460B113C10
:101400002DE9FF4D21F0004807460C46B8F1795F01
:1014100008DAFFF775F9002801BF0020324904B04F
:10142000BDE8F08D3A46234610461946FEF743FFC5
:10143000054602462D480E460B460621784400F02C
:101440005DF82A463346FEF736FFDDE90223824681
:101450008B4638462146FEF72EFF04460F4652467D
:101460005B4628463146FEF726FF22463B46FEF7FE
:101470001CFF07468A464FF0FF3228463146FFF7E9
:1014800017F91B4A90450ADA3A465346FEF70DFF14
:1014900004B00022BDE8F04D134BFEF709BF154A1A
:1014A0004245A8BFA8F500154FF00004B8BF124D83
:1014B00022462B46FEF7F9FE0646884622462B4674
:1014C00000200949FEF7F1FE04460D463A46534610
:1014D00030464146FEF7E9FE04B022462B46BDE801
:1014E000F04DFEF7E5BE00000000F03F00040000F4
:1014F0003333D33F0000E93F0000D23F2DE9F041F4
:101500004F1E00EBC7010446D1E9000115461E46F7
:1015100037F006020DD02A463346FEF7CCFE7F1E7A
:1015200004EBC703D3E90023FEF71EFE37F00602E3
:10153000F1D1022F25D0042F13D0062F18BFBDE8FC
:10154000F0812A463346FEF7B6FED4E90A23FEF7B9
:101550000BFE2A463346FEF7AEFED4E90823FEF71B
:1015600003FE2A463346FEF7A6FED4E90623FEF71D
:10157000FBFD2A463346FEF79EFED4E90423FEF720
:10158000F3FD2A463346FEF796FED4E90223FEF722
:10159000EBFD2A463346FEF78EFED4E90023BDE874
:1015A000F041FEF7E1BD00002DE9FF4D054621F0B9
:1015B000004084B00C46B0F1795F0BDA2846FFF7A3
:1015C00036FD042808BF00F06FF8284608B0214611
:1015D000BDE8F08D2A460B461046FEF76CFE064627
:1015E0000F462A462346FEF766FE804626488A4670
:1015F00032463B4605217844FFF780FF834610982A
:10160000029160B3214A224B40465146FEF753FEF9
:10161000CDE900015A4640465146029BFEF74BFE7B
:1016200082468846DDE906014FF0FF32FFF740F8B9
:1016300052464346FEF739FE32463B46FEF73BFE36
:10164000DDE90623FEF731FEDDE90023FEF72DFE7E
:1016500008B02A462346BDE8F04DFEF729BE0B46EA
:101660005A4630463946FEF726FE084A084BFEF732
:101670007BFD42465346FEF71EFE08B02A4623462F
:10168000BDE8F04DFEF770BD3E03000049555555CD
:101690005555C5BF0122FFF70BB80022134610466F
:1016A0001146FEF77ABE0000024A00201107FEF73D
:1016B000FFBF000001FDFFFF02E008C8121F08C1C4
:1016C000002AFAD170477047002001E001C1121FC3
:1016D000002AFBD1704700000149086070470000F4
:1016E000100000200EB564241426FFF741F9FFF71F
:1016F0006DFCFFF731FCDFF888903046FEF7BCFE4A
:10170000CDE90001DFF87C802046FEF7B5FE0B46F0
:1017100002461D481D49FEF740FE83460291002403
:10172000DDE900710D462046FEF7CCFE8A460446F0
:1017300000F02EF83A462B46FEF7BDFDFEF7A9FE57
:1017400085B2701B87B2002202214046FFF7FCF8E9
:101750002846FEF7F7FF012202214046FFF7F4F882
:101760003846FEF7EFFF5A4620465146029BFEF7E9
:10177000FBFCFEF7BAFE04464845D1DBCFE700008C
:10178000C3F54840000801401F85EB51B81E0940D1
:1017900000B5254B21F0004287B09A4203DC0022BD
:1017A000134600922BE0214B9A4208D140B94FF0EA
:1017B0000100FFF791FFFFF770FF07B000BD03DBEB
:1017C000FFF768FF07B000BD02AAFFF755FC10F055
:1017D00003014FF001000DD0012914D002291AD0C5
:1017E0000DF1080C9CE80F00FFF70AFE07B081F02E
:1017F000004100BD0DF1080C00909CE80F00FFF7C0
:10180000D3FE07B000BD0DF1080C9CE80F00FFF7F8
:10181000F7FD07B000BD0DF1080C00909CE80F002B
:10182000FFF7C2FEE2E70000FB21E93F0000F07F86
:101830000000000000000000010203040607080980
:101840004C5555555555A53F7751C1166CC156BFDE
:101850009015CB19A001FA3EAD529C804F7E92BEEE
:10186000C4B1B4BD9EEE213ED43888BEE9FAA8BD0D
:1018700000004054FB21F93F3163621A61B4D03D4E
:101880000000601A61B4D03D7370032E8A19A33B27
:101890000000002E8A19A33BC14920259A837B3979
:1018A00000000000000000006E83F9A22915444EDC
:1018B000D15727FCC0DD34F5999562DB4190433C5C
:1018C000AB6351FE61C5BBDE3A6E24B7E0D24D4238
:1018D000EA2E49061C92D1091CEB1DFE3EA729B138
:1018E000F53582E88444BB2E26709CE9417E5FB4C6
:1018F00039D69139F43953838B5F849C3B28F9BDE9
:10190000FF97F81F0F9805DE8B112FEF1F6D0A5AF6
:10191000CF7E366DB709CB27663F464F2DEA5F9ED7
:10192000C7BA27757BF1E5EBF739073DEA92528A92
:10193000B15FFB6B085D8D1FA6F810111111813F7F
:10194000D561C119A0012ABF7DFEB157E31DC73E75
:10195000EB9C2B8AE6E55ABE7CD5CF5A3AD9E53DB9
:10196000801900080000002014000000B8160008CC
:10197000941900081400002004040000C816000890
:101980000100000010000000000000000024F4002E
:041990000000000053
:04000005080000ED02
:00000001FF
