:020000040800F2
:10000000B008002029020008131C00086B1A000821
:10001000111C00081F04000839210008000000001E
:100020000000000000000000000000009B1D000810
:100030003105000800000000991D00089D1D000802
:10004000430200084302000843020008430200087C
:10005000430200084302000843020008430200086C
:10006000430200084302000843020008430200085C
:10007000430200084302000843020008430200084C
:10008000430200084302000843020008430200083C
:10009000210400084302000843020008430200084C
:1000A000430200084302000843020008430200081C
:1000B000430200084302000843020008430200080C
:1000C00043020008430200084302000843020008FC
:1000D00043020008430200084302000843020008EC
:1000E00043020008430200084302000843020008DC
:1000F00043020008430200084302000843020008CC
:1001000043020008430200084302000843020008BB
:1001100043020008430200084302000843020008AB
:10012000430200084302000843020008430200089B
:10013000430200084302000843020008430200088B
:10014000430200084302000843020008430200087B
:1001500075040008810400084302000843020008F7
:10016000430200084302000843020008430200085B
:100170004302000843020008430200080000000098
:10018000430200084302000800F002F800F03CF8C7
:100190000AA090E8000C82448344AAF10107DA45E2
:1001A00001D100F031F8AFF2090EBAE80F0013F0F8
:1001B000010F18BFFB1A43F001031847D8240000B1
:1001C000F8240000103A24BF78C878C1FAD8520742
:1001D00024BF30C830C144BF04680C6070470000C1
:1001E0000023002400250026103A28BF78C1FBD840
:1001F000520728BF30C148BF0B6070471FB502F0DF
:1002000033FA1FBD10B510BD00F0CFF81146FFF74F
:10021000F5FF01F0C7FF00F0EDF803B4FFF7F2FFC0
:1002200003BC00F0F5F80000094880470948004782
:10023000FEE7FEE7FEE7FEE7FEE7FEE7FEE7FEE796
:10024000FEE7FEE704480549054A064B70470000F3
:10025000351E000889010008B0020020B008002007
:10026000B0040020B004002053EA020C00F06980C2
:100270002DE9F04B4FF00006002B1FBFB3FA83F5BA
:1002800003FA05F424FA05F65E4012BF1643B2FAEB
:1002900082F502FA05F4C5F120051EBF22FA05FC1D
:1002A00044EA0C04203556EA044C4FEA144418BFC3
:1002B000641C4FF000084FF00009904271EB030CF2
:1002C00039D3002919BFB1FA81F701FA07F6B0FA5C
:1002D00080F700FA07F6C7F120071EBF20FA07FCD7
:1002E00046EA0C062037B6FBF4FCA7EB0507103FE7
:1002F00007F01F0BCBF120060CFA0BFB2CFA06F6CD
:1003000044BFB3460026202FA4BF5E464FF0000B2B
:100310005BEA060C08BF4FF0010B19EB0B09ABFBB6
:10032000027C48EB0608C01B06FB02CC0BFB03CC8F
:1003300071EB0C01C1E70B46024641464846BDE859
:10034000F08B13B54FF000004FF00001AFF30080C9
:10035000BDE81C4070474FF0000200B513469446BC
:100360009646203922BFA0E80C50A0E80C50B1F10D
:100370002001BFF4F7AF090728BFA0E80C5048BF21
:100380000CC05DF804EB890028BF40F8042B08BFBF
:10039000704748BF20F8022B11F0804F18BF00F8BB
:1003A000012B7047704770477047754600F02CF876
:1003B000AE4605006946534620F00700854618B052
:1003C00020B5FFF73FFFBDE820404FF000064FF09B
:1003D00000074FF000084FF0000B21F00701AC467A
:1003E000ACE8C009ACE8C009ACE8C009ACE8C00999
:1003F0008D46704710B50446AFF300802046BDE837
:100400001040FFF70ABF000000487047500200206C
:1004100001491820ABBEFEE7260002007047FEE748
:10042000014800F0FAB900009800002038B50F4CE0
:100430004FF4007525600025A560E560082525615D
:100440000B4C050A25706070080AA070E170100A54
:1004500020716271180AA0710449E3716B4622464B
:10046000A1F1280000F079F838BD0000C00000209C
:100470000D000020014800F01BBC0000900100208E
:10048000014800F015BC0000F001002001681823AD
:10049000CAB2103AB2FBF3F2054B6FF30901032A1B
:1004A0009B5CC36500D9091D816508467047000043
:1004B0007226000810B5014600208B698A6A4FF049
:1004C000C07453B1B3F5005F15D072B1012A0CD0DE
:1004D000022A0AD0032A09D104E01AB1012A06D05F
:1004E000022A03D1C96AC90100D5012010BDC96A19
:1004F000A142FAD010BD002AF7D0012AF2D0022A78
:10050000F3D0032AF3D010BD30B50468256825F474
:1005100080252560046863608368402B036803D0EE
:1005200099600068C26030BD9A600068C16030BDEB
:10053000704772B6FEE790F82020012A07D0022A01
:1005400005D0416A41F48021416201207047006872
:1005500042690A43426100207047F0B590F820508C
:100560000468A468012D05D0022D03D0416A41F42E
:1005700080214DE014F0406F01D1E50045D5C4F372
:1005800001640125A5401D608D684FF4C0739DB1C5
:10059000CE6835434E6845EAC605066803EB041786
:1005A000F5514FF4C275076805EB04150E697E51CD
:1005B000097D012905D009E00E88CD6845EA465538
:1005C000EBE701684E5946F480764E511179D2F826
:1005D00005504FF4C67641EA0521056806EB04167E
:1005E000A9511178D2F801204FF4C47541EA0221D3
:1005F000026805EB04155151006803EB04114258E1
:1006000042F0010242500020F0BD416A41F4001165
:1006100041620120F0BD000010B590F82020012AB1
:1006200007D0022A05D0416A41F4802141620120AD
:1006300010BD3B48D0F8002242F00102C0F8002271
:10064000D0F8002222F47C52C0F80022D0F8002218
:100650004B6A42EA0322C0F800220A7D02F01F031F
:1006600001229A40D0F81C329343C0F81C32CB6967
:10067000B3B9D0F80C329343C0F80C328C894B6874
:1006800064F31F434C6900EBC404C4F840320C8986
:100690000B6864F31F434C6900EBC404C4F8443294
:1006A000CB69012B16D1D0F80C321343C0F80C32B1
:1006B0000C884B6864F31F434C6900EBC404C4F816
:1006C00040320C89CB6864F31F434C6900EBC404CF
:1006D000C4F844328B69002BD0F804320ED0134397
:1006E000C0F804320B69002BD0F8143208D0134341
:1006F000C0F81432096A012904D008E09343EFE7F7
:100700009343F5E7D0F81C121143C0F81C12D0F83F
:10071000001221F00101C0F80012002010BD0000FD
:1007200000640040704770B590F82040012C05D05F
:10073000022C03D0416A41F4802128E0046809B307
:100740002469A40720D04FF4D874056804EB011481
:100750002D5915F00405956005682D591AD0ED083E
:10076000556005682C5904F00204D4604FF4DA7423
:10077000056804EB01142E5906F00F06082E0CD361
:1007800008250DE0E468DCE7416A41F400114162AC
:10079000012070BD6D0D1560E3E72D5905F00F05C3
:1007A000156105682D59C5F30725956105682C5914
:1007B000240C54614FF4DC72046802EB0112A4585B
:1007C0001C700468A458240A5C700468A458240CA3
:1007D0009C700468A258120EDA704FF4DE7204683E
:1007E00002EB0112A4581C710468A458240A5C711D
:1007F0000468A458240C9C710468A258120EDA7183
:10080000006829B1016941F020010161002070BD3B
:10081000C16841F02001C160F8E72DE9F05F0546AD
:10082000006800244669D0F804908768D0F80CB0BE
:10083000D0F810A0D0F81880F10748D0F90714D0EC
:1008400001218160B80703D5284600F02AFA0CE0A0
:10085000780702D54FF4006407E0380702D54FF45B
:10086000805402E0284600F01BFAF80516D52968E6
:100870004FF480708860B80503D5284600F013FA5D
:100880000CE0780502D544F4005407E0380502D5A1
:1008900044F4804402E0284600F004FAF80316D538
:1008A00029684FF480308860B80303D5284600F0EB
:1008B000FCF90CE0780302D544F4004407E0380367
:1008C00002D544F4803402E0284600F0EDF9300708
:1008D00007D55FEACB6004D52968102044F4007482
:1008E000C86070074FF0080707D55FEA0B7004D5A2
:1008F0002868C760284600F057F9B00706D5286871
:10090000C068800702D0284600F050F9700607D56D
:100910005FEACA6004D52968102044F48064086145
:10092000B00607D55FEA0A7004D528680761284633
:1009300000F086F9F00606D528680069800702D025
:10094000284600F07EF9B00308D55FEAC96005D5F6
:10095000296810204860284600F074F9F00307D594
:100960005FEA097004D528684760284600F09EF9C0
:10097000300446D55FEA497040D5F00504D55FEAFA
:10098000C87001D044F00104B00504D55FEA887056
:1009900001D544F00204700504D55FEA487001D522
:1009A00044F00404300529D518F0700F26D008F063
:1009B0007000402815D006DC102809D020280AD065
:1009C000302816D10AE050280ED0602811D10EE050
:1009D00044F008040DE044F010040AE044F0200460
:1009E00007E044F0400404E044F0800401E044F4F3
:1009F00080742868816921F0700181612968042070
:100A00004860002C05D0686A204368622846FFF7DA
:100A100089FEBDE8F09F70B5040003D094F8200073
:100A200010B104E0012070BD204600F081F820687C
:100A3000016841F00101016000F0BCFB054605269C
:100A400004E000F0B7FB401B0A2811D8206840687A
:100A5000C007F6D02068016821F00201016000F0B3
:100A6000A9FB05460BE000F0A5FB401B0A2806D9B0
:100A7000606A40F40030606284F82060D2E7206849
:100A800040688007EFD4207E0128206801683DD0AF
:100A900021F080010160607E01282068016838D063
:100AA00021F040010160A07E01282068016833D058
:100AB00021F020010160E07E0128206801682ED02D
:100AC00041F010010160207F01282068016829D0D1
:100AD00021F008010160607F01282068016824D0AE
:100AE00021F004010160D4E902010843D4E90412B1
:100AF000114308436168491E08432168C86100200A
:100B00006062012084F82000002070BD41F0800167
:100B1000C0E741F04001C5E741F02001CAE721F0FC
:100B20001001CFE741F00801D4E741F00401D9E713
:100B300010B586B0044614216846FFF70CFC17492F
:100B40002068884227D116480021026842F00072CE
:100B50000260006800F000700590114810380268CB
:100B600042F0080202600068022200F008000590CE
:100B70000320CDE90210CDE9000209200490694666
:100B8000084800F019FA00221146142000F080FBFA
:100B9000142000F06FFB06B010BD000000640040A0
:100BA00040380240000C02407047000010B588B089
:100BB0001F4B6A4600211F48FFF7B5FD0098A0F5BE
:100BC0000070013805D0012803D0022801D0032885
:100BD0002BD10098DFED180A401EC1B2144801EB7A
:100BE0008103093801700930028854BA114A403231
:100BF00022F8134041884CBA02EB43014C808488B0
:100C000064BA8C808079887132F8130000EE100A83
:100C1000B8EE400A20EE200ADFED080A20EE200A96
:100C2000BDEEC00A10EE100A088108B010BD000029
:100C30001500002098000020000000390000B44397
:100C4000704770477047000070B5044690F8200068
:100C5000012804D0606A40F40020606218E002209D
:100C600084F820002068016821F00101016000F093
:100C7000A1FA05460EE000BF00F09CFA401B0A28CE
:100C800008D9606A40F400306062052084F82000D2
:100C9000012070BD20684068C007EDD1606270BD62
:100CA0007047704770477047704770477047000043
:100CB0002DE9F84304464FF00009CDF80090634851
:100CC0004FF41651A56D0068B0FBF1F72E6894F84B
:100CD0005C10082000FA01F131420FD021680A6847
:100CE00052070BD50A6822F004020A6094F85C10DF
:100CF0008840A860606D40F00100606594F85C1069
:100D00004FF0010808FA01F0304208D02168496923
:100D1000090604D5A860606D40F00200606594F893
:100D20005C1004208840304208D021680968890797
:100D300004D5A860606D40F00400606594F85C1014
:100D400010208840304218D021680968090714D55E
:100D5000A86020680168490304D50068000308D52D
:100D6000A16C07E00168C90503D4016821F00801FE
:100D70000160216C09B12046884794F85C1020205E
:100D80008840304231D021680968C9062DD5A86055
:100D900094F8350005282068016806D0490347D536
:100DA000006800031DD4616C1CE021F01601016095
:100DB0002068416921F080014161206C08B9A06C74
:100DC00020B12068016821F00801016094F85C10EE
:100DD0003F208840A86084F8358084F83490216DE5
:100DE0001FE0E16B09B120468847606D00282BD0D9
:100DF000606DC00714D0052084F8350020680168B4
:100E000021F0010101600098401C0090B84203D815
:100E100020680068C007F6D184F8358084F83490E3
:100E2000E16C002910D001B02046BDE8F04308472E
:100E30000168C905D5D4016821F01001016084F86A
:100E4000358084F83490CCE7BDE8F8832C0000208E
:100E50002DE9F041044600F0ADF906465CB10220F0
:100E600084F83500002584F834502068016821F0AA
:100E7000010101600DE00120BDE8F08100F09AF968
:100E8000801B052805D920206065032084F83500E3
:100E9000F2E720680068C007F0D122681168204896
:100EA0000140D4E901031843D4E90336334318431E
:100EB00063691843A3691843E3691843236A184315
:100EC0000843616A042903D1D4E90B131943084389
:100ED000106020684069666A20F0070130460E43C2
:100EE000012704280CD1A06A0643E06A40B12046DD
:100EF000FFF7E0FA20B14020606584F83570BAE76A
:100F0000206846612046FFF7C1FA94F85C203F2133
:100F100091408160656584F835700020ACE7000081
:100F20003F8010F02DE9F0410446866D90F83400C2
:100F3000002501280DD0012084F8340094F8357084
:100F40000020012F07D084F8340002252846BDE890
:100F5000F0810220FBE7022784F8357060652046A7
:100F6000FFF7D2FA94F85C103F208840B060206808
:100F7000016841F016010160206C20B12068016811
:100F800041F0080101602068016841F00101016041
:100F9000DCE7000070B5044600F00CF90546601C63
:100FA00002D004480078044400F004F9401BA04239
:100FB000FAD370BD200000202DE9F84FDFF8BCA166
:100FC0000022012503264FF00F090AF1040BAAF1B4
:100FD000040E00BF0B6805FA02F42340A34270D14F
:100FE0000F7907F00307012F01D0022F16D1876870
:100FF0004FEA420806FA08FC27EA0C07D1F80CC0B1
:101000000CFA08FC4CEA070CC0F808C04768A74374
:101010000C79C4F3001494403C4344600C79E443DD
:10102000A4070AD0C4684FEA420C06FA0CF7BC4386
:101030008F6807FA0CF72743C7600C7904F00304A4
:10104000022C12D1D40800EB840CDCF820405707A6
:10105000FF0E09FA07F824EA0804D1F8108008FA0C
:1010600007F848EA0408CCF8208004684FEA420CEC
:1010700006FA0CF7BC430F7907F0030707FA0CF7E1
:10108000274307604C6814F4403F70D03C4C2768FD
:1010900047F480472760246822F0030704F4804463
:1010A0000094384C07EB040CDCF8084897074FEA2B
:1010B000177809FA08F7BC43334FB84202D100272A
:1010C00024E054E0314FB84201D101271EE0304FF7
:1010D000B84201D1022719E02E4FB84201D10327AF
:1010E00014E02D4FB84201D104270FE02B4FB84236
:1010F00001D105270AE02A4FB84201D1062705E0B1
:10110000284FB84201D1072700E0082707FA08F75F
:101110002743CCF80878DAF800405746D1F804C0E5
:101120009C435FEACC2C00D51C433C60DBF80040BC
:101130005F46D1F804C09C435FEA8C2C00D51C4369
:101140003C60DEF800407746D1F804C09C435FEA7B
:101150008C3C00D51C433C60084F083F3C68D1F8EC
:1011600004C09C435FEACC3C00D51C433C60521C4D
:10117000102AFFF42FAFBDE8F88F0000083C0140B3
:1011800044380240003001400000024000040240A8
:1011900000080240000C024000100240001402400F
:1011A00000180240001C02400AB181617047090426
:1011B000FBE7000001488068704700002000002025
:1011C0000248816802781144816070472000002045
:1011D0000B4810B5016841F400710160016841F4E9
:1011E00080610160016841F480710160032000F0BA
:1011F0006FF80F2000F006F800F024F8002010BD72
:10120000003C024070B50D4D04464FF47A712878C9
:10121000B1FBF0F00A490968B1FBF0F000F00CFBFB
:1012200048B9102C07D200222146501E00F030F899
:1012300000206C6070BD012070BD00002000002007
:101240002C0000200A4808B5016841F48041016083
:10125000006800F4804000900548001F016841F0DC
:1012600080510160006800F08050009008BD0000CF
:1012700044380240002809DB00F01F0201219140A0
:101280004009800000F1E020C0F800117047000024
:10129000F0B40E4B1B680C46C3F30223C3F10705E1
:1012A000042D00D90425191D072901D2002300E0CF
:1012B000DB1E012606FA05F1491E214099409E4099
:1012C000761E16403143F0BC00F037BF0CED00E055
:1012D000064900F0070208684FF6FF03184040EA8D
:1012E0000220034A10430860704700000CED00E044
:1012F0000000FA052DE9F0470E46050065D0DFF83D
:101300001481D8F80000F7B200F00700B04207D20D
:1013100088F80070D8F8000000F00700B04254D1FF
:1013200028683D4C810712D5400703D5206840F45A
:10133000E05020602878000703D5206840F4604022
:1013400020602068A96820F0F00008432060287819
:10135000C0072DD0304968680839012812D002280A
:1013600013D0032811D00968890700292DDA2168D4
:1013700021F0030101432160FFF71CFF814641F288
:10138000883A0EE009688903EFE709688901ECE70C
:10139000FFF710FFA0EB0901514502D90320BDE87A
:1013A000F0872068696800F00C00B0EB810FEFD186
:1013B000D8F80010404601F00701B14207D9077084
:1013C000006800F00700B04201D00120E7E728786C
:1013D000400705D52068E96820F4E0500843206004
:1013E0002878000706D52068296920F4604040EA83
:1013F000C100206000F038F82168084AC1F30311E9
:10140000515CC8400649086006480068FFF7FAFECC
:101410000020C4E7003C0240083802407A26000859
:101420002C000020240000200448054900680968B9
:10143000044AC1F38221515CC84070472C0000204F
:10144000083802408A2600080448054900680968EF
:10145000044AC1F34231515CC84070472C0000205F
:10146000083802408A260008154810B5006810F0B8
:101470000C02144813D01449042A0FD0082A0ED1A4
:101480000F4C241F2268236802F03F025B0207D53D
:101490002068C0F38810A0FB010106E0084610BDDB
:1014A0002168C1F38811A1FB00010023FEF7DCFED7
:1014B0002168C1F30141491C4900B0FBF1F010BDA6
:1014C000083802400024F400001BB7002DE9F84F53
:1014D00004006ED02078DFF84C93C007A9F1040512
:1014E0004AD009F104000168C1F38101012908D043
:1014F0000068C0F3810002280AD1D9F80000400238
:1015000006D52868800337D560680028E1D033E02D
:101510006068B0F5803F10D0B0F5A02F286810D0DB
:1015200020F480302860286820F4802028606068DB
:10153000A8B1FFF73FFE06460DE0286840F4803072
:10154000F4E740F480202860F7E700BFFFF732FEA1
:10155000801B642873D828688003F7D50CE0FFF758
:1015600029FE064605E000BFFFF724FE801B642825
:10157000F0D828688003F7D42078DFF8AC828007A1
:101580004FF0000A3ED5A748001D016811F00C0F6E
:1015900008D00068C0F3810002280BD1D9F8000000
:1015A000400207D42868800716D5E068012800D1DA
:1015B00012E033E1E068B8B10120C8F80000FFF79D
:1015C000F9FD064605E000BFFFF7F4FD801B022889
:1015D000C0D828688007F7D52868216920F0F8006E
:1015E00040EAC10028600DE0C8F800A0FFF7E2FD66
:1015F000064604E0FFF7DEFD801B02281FD828689E
:101600008007F7D42078000722D5864F8748616984
:10161000703771B101210160FFF7CCFD064604E08F
:10162000FFF7C8FD801B022809D838688007F7D566
:101630000EE0C0F800A0FFF7BDFD064605E082E021
:10164000FFF7B8FD801B02287DD838688007F7D4E3
:101650002078400768D5DFF8CCB100270BF13C0BB0
:10166000DBF80000C0000BD4DBF8001041F0805123
:10167000CBF80010DBF80000012700F0805000904C
:101680006B4E3068C00510D4306840F48070306014
:10169000FFF790FD009005E0FFF78CFD0099401AE0
:1016A000022850D83068C005F6D55E4EA0686C366A
:1016B00001280FD00528306810D020F001003060DC
:1016C000306820F004003060A068B8B1FFF772FD08
:1016D00000900FE0306840F00100F4E740F00400B3
:1016E0003060F7E7FFF766FD0099411A41F2883054
:1016F000814266D830688007F4D50EE0FFF75AFDC6
:10170000009007E0FFF756FD0099411A41F288303A
:10171000814256D830688007F4D42FB1DBF800102E
:1017200021F08051CBF80010A069C8B33D49091DD4
:101730000968C1F3810102294AD00228504607D026
:10174000C8F8600000E03CE0FFF734FD04463BE0F1
:101750004746C8F86000FFF72DFD064605E000BFCC
:10176000FFF728FD801B02282BD828688001F7D4BA
:10177000D4E907010843A16A2E4A490802EB014156
:10178000626A41EA8211084394F82C1040EA016130
:10179000C9F8001001203866FFF70CFD044606E08A
:1017A0003EE000BFFFF706FD001B022809D82868AD
:1017B0008001F7D534E000BFFFF7FCFC001B0228D6
:1017C00002D90320BDE8F88F28688001F4D427E00F
:1017D0000128F7D0D9F80000E26900F480019142B5
:1017E0001CD1226A00F03F01914217D147F6C07127
:1017F000626A0140B1EB821F10D1A26A4FF0FF3341
:1018000000F4403103EB5202B1EB024F06D194F8E1
:101810002C1000F07060B0EB016F01D00120D1E717
:101820000020CFE70438024000004742800E4742C4
:10183000007000400000FFFF10B5401EB0F1807F37
:1018400001D3012010BD4FF0E02460610F2160172B
:1018500000F073FC0020A06107202061002010BD73
:101860007047704770B5040004D094F8410000251B
:1018700010B106E0012070BD84F84050204600F011
:1018800023F8242084F841002068C16821F4005125
:10189000C160204600F082FB2068016921F490417C
:1018A00001612068416921F02A0141612068C16815
:1018B00041F40051C1606564202084F8410084F83F
:1018C00042006563002070BD2DE9F04186B00646F8
:1018D00014216846FEF73FFD3D48DFF8F0C014389C
:1018E000356800243A490222032307154FF4403893
:1018F00065452ED10D6845F010050D60096801F0B1
:1019000010010591016841F002010160006869461B
:1019100000F002000590C0208DE815000720CDE9F9
:1019200003302C48FFF748FB2C4D2B4828607804E7
:10193000C5E90104C5E903476C61AC61C5E9074825
:1019400028466C62FFF784FA08B1FEF7F2FDF563F2
:1019500037E0DFF88CC0654534D10D6845F02005CF
:101960000D60096801F020010591016841F0400116
:1019700001600068694600F0400005904FF4844023
:101980008DE815000820CDE903301648FFF714FB59
:10199000124D11486035183028604FF020606860A3
:1019A00005F1080C40208CE891006C61AC61C5E940
:1019B000074828466C62FFF74BFA08B1FEF7B9FDFD
:1019C000B563AE6306B0BDE8F081000000100140D1
:1019D0004438024000040240886402409001002024
:1019E000001401400018024090F84230202B01D032
:1019F0000220704721B11AB10023036300F054BBE9
:101A00000120704717480188C1F30A02A0F10C01B8
:101A1000A2F580620A8042788378D20842EA4312B3
:101A2000C2F30A02A2F580624A809A09C37842EAA8
:101A30008302037942EA8322C2F30A02A2F580629A
:101A40008A805A08437942EAC312C2F30A02A2F515
:101A50008062CA809A090A72C3F301124A72008A2C
:101A6000488170473C0000207047FEE70F4810B5E2
:101A70000D4901600321416000214FF41022816073
:101A8000C0E903124FF4001242610176417681767B
:101A9000C17601774177FEF7BEFF002803D0BDE88D
:101AA0001040FEF746BD10BD0064004098000020C5
:101AB0000D4808B5016841F480010160006800220A
:101AC00000F48000009011464420FFF7E1FB442021
:101AD000FFF7D0FB002211464520FFF7D9FBBDE8F8
:101AE00008404520FFF7C6BB3038024030B587B00C
:101AF00014216846FEF72FFC24480024016841F0B9
:101B000040010160016801F040010591016841F068
:101B100001010160016801F001010591016841F0D6
:101B200002010160016801F002010591016841F0C4
:101B300008010160016801F008010591016841F0A8
:101B4000800101600068124D00F0800005900022C5
:101B50003C212846FFF728FB01213C20CDE9021457
:101B6000CDE9000169462846FFF726FA4FF44050B8
:101B700000900220CDE90104032003900920049085
:101B800069460448FFF718FA07B030BD3038024004
:101B9000001C0240000402400D4810B50B490160D2
:101BA0000C49416000214FF480628160C0E903125A
:101BB0000C22C0E90521C161FFF754FE002803D0C3
:101BC000BDE81040FEF7B5BC10BD0000001001409C
:101BD00000010020A08601000C4810B50A490160F0
:101BE0004FF4E1314160002181600C22C160C0E905
:101BF00004128161C161FFF735FE002803D0BDE802
:101C00001040FEF796BC10BD0014014048010020B2
:101C1000FEE7FEE7A0B1D0ED101AC0ED111A90ED6D
:101C20000F1A80ED101AC0ED060A80ED070A30EE9B
:101C3000C00A80ED0F0A017829B101293BD078E074
:101C40009FED3D0A7047D0ED010A60EE801AC0EDAD
:101C5000091AD0ED0A0A90ED022A42EE000A30EE8F
:101C6000410AC0ED0A0A90ED0D2A80ED0E2A90ED92
:101C70000C2A80ED0D2A80ED0C0A90ED031A21EE5E
:101C8000001A80ED0B1A90ED050AF4EEC00AF1EE91
:101C900010FA09DCB1EE400AF4EEC00AF1EE10FAD7
:101CA00002D390ED0A0A01E080ED0A0A31EE800AC3
:101CB00030EE010A2BE070EE410A90ED012A20EE91
:101CC000822A80ED092AD0ED020A60EE800AC0ED7A
:101CD0000A0AD0ED0D2A72EE200AC0ED0E2AD0EDD0
:101CE0000C2AC0ED0D2AF0EE002A01EE620A30EE59
:101CF000210A80ED0C0A90ED031A21EE000A80ED16
:101D00000B0A30EE800AD0ED080A30EE200A80ED92
:101D1000080AD0ED040AB4EEE00AF1EE10FA06DC8F
:101D2000F1EE600AB4EEE00AF1EE10FA01D2C0ED75
:101D3000080A90ED080A704700000000002828D02B
:101D4000002A26D0017092ED001A80ED011A92ED62
:101D5000011A80ED021A92ED021A80ED031A80ED4D
:101D6000040A9FED0C0AC0ED050A80ED0E0A80ED15
:101D70000D0A80ED0C0A80ED080A80ED0B0A80ED5B
:101D80000A0A80ED090A80ED110A80ED100A80ED43
:101D90000F0A70470000000070477047FFF710BA45
:101DA00030B593B030216846FEF7D5FA14210CA85F
:101DB000FEF7D1FA1D480025016841F0805101600D
:101DC000006800F0805011901948016841F480418A
:101DD00001600068022400F480401190012000900E
:101DE000000401908001CDE9064006200890A8205B
:101DF000CDE9090404200B906846FFF767FB08B1A2
:101E000072B6FEE70CA90F2081E831004FF4A05014
:101E10000F904FF48050109005210CA8FFF76AFA3C
:101E2000002801D072B6FEE713B030BD4038024042
:101E3000007000400248016841F470010160704781
:101E400088ED00E070B5846B2068406994F841101B
:101E5000C0F3C0100025212904D118B1E584204623
:101E600000F08EF82068406994F84210C0F38010AA
:101E7000222904D118B1E585204600F05AF8606C9B
:101E800040F0100060642046FFF7EBFC70BD10B519
:101E90000146806B096809684FF00002C9052ED41D
:101EA000C28501680C3151E8003F23F4807341E89A
:101EB0000034002CF5D10168143151E8003F23F0C3
:101EC000010341E80034002CF5D10168143151E8D8
:101ED000003F23F0400341E80034002CF5D12021DD
:101EE00080F84210016B012909D101680C3151E8D9
:101EF000003F23F0100341E80034002CF5D1426389
:101F0000016B012902D0FFF77DFD10BD818DFFF728
:101F1000A7FC10BD10B5806B01214163016B012945
:101F200002D0FFF7A1FD10BD818D4908FFF798FC95
:101F300010BD01680C3151E8002F22F4907241E885
:101F40000023002BF5D10168143151E8002F22F055
:101F5000010241E80023002BF5D1016B012909D1D1
:101F600001680C3151E8002F22F0100241E80023F3
:101F7000002BF5D1202180F8421000210163704729
:101F800001680C3151E8002F22F0C00241E8002323
:101F9000002BF5D1202180F84110704770B5044620
:101FA00000680169E26821F440511143016121692F
:101FB000A068E26908436169114308432168CA685F
:101FC00049F20C639A430243CA6020684169A269DE
:101FD00021F440711143416131492068884202D0A7
:101FE0003049884202D1FFF72FFA01E0FFF71CFACF
:101FF000E2690023192164253226B2F5004F626898
:1020000028D0A0FB0101930F9200FEF72DF90146A5
:10201000B0FBF5F06FF01802504301EB800006EBC7
:102020000010B0FBF5F000F0F002B1FBF5F002EBB0
:102030000012B1FBF5F06FF01803584301EB80007C
:1020400006EB0010B0FBF5F000F00F002168104423
:10205000886070BDA0FB010192185B41FEF704F996
:102060000146B0FBF5F00201B1FBF5F06FF018038B
:10207000584301EB800006EBC000B0FBF5F000F028
:10208000F80002EB4002B1FBF5F0584301EB800091
:1020900006EBC000B0FBF5F000F00700D6E700004B
:1020A000001001400014014038B581620446828569
:1020B000002013466064222284F84220E56B1B4A0C
:1020C000EA63E56B1A4A2A64E56B1A4AEA64E26B32
:1020D00010650A462168E06B091DFEF723FF2068A2
:1020E000016840680090206948B120680C3050E8D1
:1020F000001F41F4807140E80012002AF5D12068E9
:10210000143050E8001F41F0010140E80012002A9D
:10211000F5D12068143050E8001F41F0400140E83C
:102120000012002AF5D1002038BD00008F1E0008E3
:10213000151F0008451E0008FEE70907090E0028C4
:1021400004DB00F1E02080F80014704700F00F007D
:1021500000F1E02080F8141D7047000010B500F079
:102160000BF80448FEF770FDBDE81040022101485D
:10217000FEF7E1B99800002000B58BB000200121E6
:10218000CDE906010891009001900290039005901E
:10219000049069460248FEF73FFA0BB000BD00000C
:1021A000980000202DED028BFFF712F8FFF7F8FDE5
:1021B000FFF79CFCFFF77CFCFFF758FCFFF7ECFCFB
:1021C000FFF70AFD122228492848FFF70DFC27488F
:1021D0000068C16841F01001C160FFF7BFFF9FEDCB
:1021E000240A2148234AF0EE400A00211430FFF768
:1021F000A5FD1D4C9FED208B1434214EA4F120052C
:102200004FF47A71688810FB01F000F0C2F953ECCA
:10221000182B00F037F800F08DF900EE100AB6F92F
:102220000C0000EE900A1048B8EEE01AF8EEC00A72
:102230001430B0EE410AFFF7EDFC94ED080ABDEE54
:10224000C00A10EE100A03B210EE100A02B210EE2D
:10225000100A01B210EE100A00B2FEF7E7F80A20E9
:10226000FEF798FECCE700003C00002000010020B3
:1022700000007A46000000200000000000A084401A
:10228000D80000202DE9C04130B4DFF8A0C23CEAFC
:10229000111418BF3CEA131400F0EC8081EA030526
:1022A0001CEA111444EAD57418BF1CEA131500F097
:1022B000C780A4EB05044FF0004545EAC12145EA7B
:1022C000C32341EA505143EA525304F17F749942C7
:1022D00004F500344FEAC0204FEAC22208BF904202
:1022E00000F09C804FEA13650FF24016765D4FEACE
:1022F000134506FB05F7C7F1807706FB07F74FEAA2
:10230000D737A7FB03687642C8F58038A7FB06CE0F
:1023100038BFA8F1010807FB08E64FF0000EA6FB46
:10232000028CE6FB03CEDCF1000CCEF1004E38BF90
:10233000AEF1010EA6FB0C584FF000074FF0000560
:10234000E6FB0E87A1FB08C6A0FB07CE16EB0E0628
:1023500045F10005E1FB076515F1E04E7EBFA4F5F0
:1023600080345FEA46066D4116F1800745F10005AD
:102370004FEA17274FEA066647EA0567A6F1DE46E9
:10238000B6F1805F4FEA15251FD9384624F0010CBD
:1023900005EBC471BCF1FE6F01EB0C1102D8F0BC6F
:1023A000BDE8008124425CBF01F5801E9EEAC47F27
:1023B00002D4F0BCBDE80081244238D4F0BCA1F1C5
:1023C000C041BDE8004100F049B94FEAD22242EADB
:1023D00043524FEAD323A7FB02864FEAD02040EABC
:1023E000415007FB03661EEA0E0F4FEAD12105FBA1
:1023F000026658BFA6EB0056B6EB00564FEA520EE7
:102400004EEAC37E18EB0E0E56EB530EBDD518EBFD
:1024100002085E417F1C55F10005B6E74FF48015B8
:102420004FF000074FF000064FF00008ADE7F0BC9A
:102430004FF0000001F1C04101F00041BDE8008112
:1024400011EA0C1F0CEA131500D00CE013EA0C1F64
:1024500000F025804FF00000F0BC81EA030101F09C
:102460000041BDE80081F0BCBDE8004181EA030104
:1024700000F0F4B8F0BCBDE8004170B500F0A0F881
:10248000097EFC3E00F007B881EA03014FF000002E
:1024900001F00041704781EA030100F0DFB8F0BCB1
:1024A000BDE800414FF0000021497047FFFDFBF9F6
:1024B000F7F5F4F2F0EEEDEBE9E8E6E4E3E1E0DE77
:1024C000DDDBDAD8D7D5D4D3D1D0CFCDCCCBCAC8E9
:1024D000C7C6C5C4C2C1C0BFBEBDBCBBBAB9B8B710
:1024E000B6B5B4B3B2B1B0AFAEADACABAAA9A8A803
:1024F000A7A6A5A4A3A3A2A1A09F9F9E9D9C9C9BD1
:102500009A9999989797969595949393929191907B
:102510008F8F8E8E8D8C8C8B8B8A8989888887870C
:102520008685858484838382828181800000FF0781
:102530000000F87F4FEA41034FEA5353A3F580634D
:10254000D3F11E03C8BFD3F1210C0CDD4FF00042C4
:1025500042EAC12242EA505232FA03FC8CEAE17CA0
:10256000ACEBE1707047102BC4BF0020704703F53F
:10257000787CBCF1FF3F04D06FF0004282EA21007A
:10258000704770B500F01CF8499224800020704715
:10259000F2E710F0004248BF4042B0FA80F310FA70
:1025A00003F10AD0C3F11D0303F580634FEA4150E4
:1025B00002EB035202EBD12170474FF0000070474D
:1025C0000EF1020E2EF0030E5EF8046B364205D4B7
:1025D000012A43EB030515F5001F12D8012841EB32
:1025E000010C1CF5001F0CD80ED14FEAD17C15F55B
:1025F000001F0CEB4C0C0CF1020C08BF4CEBD37C15
:1026000004E04FF0080C01E04FEAD37C0CEB4C05E2
:1026100026FA05F606F00706B6F1040C06D20EEB14
:10262000860CBDE870404CF0010C6047DFE80CF010
:10263000090B02024FF000414FF00000A1F500210C
:1026400070BD19461046012851EB010418BFD4F59E
:10265000001484BF002001F0004170BD0808A0F5FF
:1026600000114FEA310170474FF04070E1EE100A5F
:10267000704700061016000610160000000000004B
:10268000000001020304060708090000000001021F
:1026900003040000B4260008000000203000000001
:1026A000C4010008E4260008300000208008000073
:1026B000E001000800004040CDCCCC3D000000000F
:1026C000000000000000000000000000000000000A
:1026D00000000000010000001000000000000000E9
:0426E0000024F400DE
:040000050800018965
:00000001FF
